:100000000C947A000C9499000C9499000C9499002B
:100010000C9499000C9499000C9499000C949900FC
:100020000C9499000C9464030C9499000C9499001E
:100030000C9499000C9499000C9499000C949900DC
:100040000C9499000C9499000C9499000C949900CC
:100050000C9499000C9499000C9499000C949900BC
:100060000C9499000C9499000C9499000C949900AC
:100070000C9499000C9499000C9408030C9499002A
:100080000C9499000C9499000C9499000C9499008C
:100090000C9499000C9499000C9499000C9499007C
:1000A0000C9499000C9499000C9499000C9499006C
:1000B0000C9499000C9499000C9499000C9499005C
:1000C0000C9499000C9499000C9499000C9499004C
:1000D0000C9499000C9499000C9499000C9499003C
:1000E0000C9499000C9499000C9499000C9499002C
:1000F0000C94990011241FBECFEFCDBFDFE7DEBF08
:1001000010E4A0E0B0E4ECE7F8E000E00BBF02C0D0
:1001100007900D92A031B107D9F720E4A0E1B0E437
:1001200001C01D92A832B207E1F70E947E030C9431
:100130003C040C9400008091050985FD0DC0809160
:10014000050982FD09C08091050983FD05C08091E4
:1001500005098370833079F708958091050982FF3E
:1001600004C083E08093040908958091050983FF0A
:1001700005C083E08093040984E008958091050917
:1001800082FF05C083E08093040981E00895809197
:1001900005098370833021F48093040982E0089577
:1001A00080E00895E0E0F9E084E0808381E08283EC
:1001B0009DEF95839FE0968383830895CF939091DD
:1001C000050990FF24C0C62F880F809307090E945D
:1001D0009B000E94AD0080931140809111408823C4
:1001E00019F08091114014C0C09308090E949B002F
:1001F0000E94AD008093114080911140882319F036
:100200008091114005C093E09093040901C082E001
:10021000CF910895FF920F931F93CF93DF93F22E08
:10022000C82FC07F90E1899F80011124611102C015
:10023000D0E001C0D1E04111DE5FCD0F60911040F0
:100240006C0F6C5F87E20E94DE00811129C088E29A
:100250008A95F1F7609110406C0F87E20E94DE00F2
:10026000811120C091E39A95F1F70000F1101DC0B3
:100270000D0F60911040600F6C5F87E20E94DE00FE
:10028000811112C088E28A95F1F7D0911040602F59
:100290006D0F87E20E94DE00882339F081E005C0FF
:1002A00081E003C081E001C081E0DF91CF911F9127
:1002B0000F91FF900895882379F020E040E060E0FE
:1002C0008CE00E940A0180931140809111408823A4
:1002D00091F080911140089520E040E060E088E0D6
:1002E0000E940A018093114080911140882319F0E7
:1002F00080911140089581E38A95F1F7000080E034
:1003000008958823A1F08091104088608093104068
:1003100020E040E060E08CE00E940A018093114000
:10032000809111408823B9F0809111400895809107
:100330001040877F8093104020E040E060E088E03C
:100340000E940A018093114080911140882319F086
:1003500080911140089581E38A95F1F7000080E0D3
:10036000089520E040E060E081E00E940A018111F0
:1003700007C0EFE3F6E03197F1F700C00000089501
:1003800081E00895803108F08FE0623008F061E08C
:10039000E62FF0E0E050F04C9081890F20E040E043
:1003A00060E080580E940A01811105C091E39A958E
:1003B000F1F70000089581E0089520E040E061E059
:1003C0000E940A01811105C096E39A95F1F700C0D9
:1003D000089581E00895CF93DF93EC010CC020E0F5
:1003E00040E061E00E940A01811109C0219686E384
:1003F0008A95F1F700C088818111F1CF01C081E0B9
:10040000DF91CF91089520E040E060E086E00E9417
:100410000A01811105C091E39A95F1F70000089552
:1004200081E008950E94D20060E087E20E94DE0031
:100430008093114080911140882319F080911140E0
:1004400008958FE493EC0197F1F700C0000021E0DC
:1004500040E060E080E30E940A01809311408091B7
:100460001140882319F080911140089587E893E1A5
:100470000197F1F700C0000021E040E060E080E378
:100480000E940A018093114080911140882319F045
:1004900080911140089592E99A95F1F700C021E00A
:1004A00040E060E080E30E940A0180931140809167
:1004B0001140882319F080911140089582E48A95B3
:1004C000F1F700C021E040E060E080E20E940A0114
:1004D0008093114080911140882319F08091114040
:1004E000089591E39A95F1F7000020E040E060E084
:1004F00088E20E940A018093114080911140882374
:1005000019F080911140089581E38A95F1F7000078
:1005100081E00E945B01809311408091114088230B
:1005200019F08091114008950E94B101809311400B
:1005300080911140882319F08091114008950E9404
:1005400003028093114080911140882319F080911B
:100550001140089581E00E948101809311408091B3
:1005600011408111809111400895CF92DF92EF9256
:10057000FF920F931F93CF936B017C0180E090E07B
:1005800005C0FC01E35EFF4B108201968B309105A4
:10059000C4F3C114D104E104F10471F480E3809345
:1005A0001D402CC0CA01B9012AE030E040E050E013
:1005B0000E941A04CF5F03C0A7019601C0E0211575
:1005C00031054105510571F714C0C1500C2F10E0E1
:1005D000C701B6012AE030E040E050E00E941A0472
:1005E000F801E35EFF4B605D6083C22ED32EE42EE4
:1005F000F52EC114D104E104F10439F78DE190E442
:10060000CF911F910F91FF90EF90DF90CF900895C1
:100610001F920F920FB60F9211240BB60F928F9369
:100620009F93AF93BF93EF93FF938091490484FF0F
:100630001BC08091174090911840A0911940B09133
:100640001A400596A11DB11D809317409093184044
:10065000A0931940B0931A4010928404E0E4F4E0AF
:1006600081858061818723C08091490485FF1FC0F7
:100670008091124081110CC081E080931240E0E033
:10068000FAE080818160808382E0809384040AC0E4
:1006900010921240E0E0FAE080818E7F808384E057
:1006A00080938404E0E4F4E0818580628187FF9197
:1006B000EF91BF91AF919F918F910F900BBE0F90D3
:1006C0000FBE0F901F9018951F920F920FB60F92AA
:1006D00011248F939F9380911B4090911C40019611
:1006E00080931B4090931C4081E080930B0A9F9164
:1006F0008F910F900FBE0F901F901895E0E8F4E0D7
:1007000087E080831482E0E4F4E0108284898260D0
:10071000848B85898260858BE0E0FAE0808184604B
:10072000808387EE93E086A397A38285816082878A
:1007300078940E94120280E30E94DD0180911B40A8
:1007400090911C40883E9340B8F010921B4010924C
:100750001C408091174090911840A0911940B09191
:100760001A400197A109B10980931740909318404E
:10077000A0931940B0931A404091174050911840EF
:100780006091194070911A408091134090911440EB
:10079000A0911540B0911640481759076A077B078A
:1007A00011F18091174090911840A0911940B0919B
:1007B0001A408093134090931440A0931540B09337
:1007C00016400E94B10160E080E00E94C201609189
:1007D0001740709118408091194090911A400E94E2
:1007E000B5020E94EB018091174090911840A091B2
:1007F0001940B0911A40892B8A2B8B2B09F09ECF80
:1008000080911240882309F499CF0E94B10160E0E1
:1008100080E00E94C20182E090E40E94EB01E0E0EF
:10082000FAE080818E7F80831092124081E0809375
:10083000840484CFA1E21A2EAA1BBB1BFD010DC0AC
:10084000AA1FBB1FEE1FFF1FA217B307E407F50780
:1008500020F0A21BB30BE40BF50B661F771F881F5C
:10086000991F1A9469F760957095809590959B01F2
:0C087000AC01BD01CF010895F894FFCF4A
:10087C0000404E696365204A6F6221203A2D2900A1
:00000001FF
