:100000000C947A000C9499000C9499000C9499002B
:100010000C9499000C9499000C9499000C949900FC
:100020000C9499000C9499000C9499000C949900EC
:100030000C9499000C9499000C9499000C949900DC
:100040000C9499000C9499000C9499000C949900CC
:100050000C9499000C9499000C9499000C949900BC
:100060000C9499000C9499000C9499000C949900AC
:100070000C9499000C9499000C9499000C9499009C
:100080000C9499000C9499000C9499000C9499008C
:100090000C9499000C9499000C9499000C9499007C
:1000A0000C9499000C9499000C9499000C9499006C
:1000B0000C9499000C9499000C9499000C9499005C
:1000C0000C9499000C9499000C9499000C9499004C
:1000D0000C9499000C9499000C9499000C9499003C
:1000E0000C9499000C9499000C9499000C9499002C
:1000F0000C94990011241FBECFEFCDBFDFE7DEBF08
:1001000010E4A0E0B0E4E2E1F7E000E00BBF02C0E1
:1001100007900D92A230B107D9F720E4A2E0B0E435
:1001200001C01D92A430B207E1F70E943E030C9477
:1001300087030C9400008091050985FD0DC0809116
:10014000050982FD09C08091050983FD05C08091E4
:1001500005098370833079F708958091050982FF3E
:1001600004C083E08093040908958091050983FF0A
:1001700005C083E08093040984E008958091050917
:1001800082FF05C083E08093040981E00895809197
:1001900005098370833021F48093040982E0089577
:1001A00080E00895E0E0F9E084E0808381E08283EC
:1001B0009DEF95839FE0968383830895CF939091DD
:1001C000050990FF24C0C62F880F809307090E945D
:1001D0009B000E94AD0080930340809103408823E0
:1001E00019F08091034014C0C09308090E949B003D
:1001F0000E94AD008093034080910340882319F052
:100200008091034005C093E09093040901C082E00F
:10021000CF910895FF920F931F93CF93DF93F22E08
:10022000C82FC07F90E1899F80011124611102C015
:10023000D0E001C0D1E04111DE5FCD0F60910240FE
:100240006C0F6C5F87E20E94DE00811129C088E29A
:100250008A95F1F7609102406C0F87E20E94DE0000
:10026000811120C091E39A95F1F70000F1101DC0B3
:100270000D0F60910240600F6C5F87E20E94DE000C
:10028000811112C088E28A95F1F7D0910240602F67
:100290006D0F87E20E94DE00882339F081E005C0FF
:1002A00081E003C081E001C081E0DF91CF911F9127
:1002B0000F91FF900895882379F020E040E060E0FE
:1002C0008CE00E940A0180930340809103408823C0
:1002D00091F080910340089520E040E060E088E0E4
:1002E0000E940A018093034080910340882319F003
:1002F00080910340089581E38A95F1F7000080E042
:1003000008958823A1F08091024088608093024084
:1003100020E040E060E08CE00E940A01809303400E
:10032000809103408823B9F0809103400895809123
:100330000240877F8093024020E040E060E088E058
:100340000E940A018093034080910340882319F0A2
:1003500080910340089581E38A95F1F7000080E0E1
:10036000089520E040E060E081E00E940A018111F0
:1003700007C0EFE3F6E03197F1F700C00000089501
:1003800081E00895803108F08FE0623008F061E08C
:10039000E62FF0E0E050F04C9081890F20E040E043
:1003A00060E080580E940A01811105C091E39A958E
:1003B000F1F70000089581E0089520E040E061E059
:1003C0000E940A01811105C096E39A95F1F700C0D9
:1003D000089581E0089520E040E060E086E00E941A
:1003E0000A01811105C091E39A95F1F70000089583
:1003F00081E008950E94D20060E087E20E94DE0062
:100400008093034080910340882319F0809103403A
:1004100008958FE493EC0197F1F700C0000021E00C
:1004200040E060E080E30E940A01809303408091F5
:100430000340882319F080910340089587E893E1F1
:100440000197F1F700C0000021E040E060E080E3A8
:100450000E940A018093034080910340882319F091
:1004600080910340089592E99A95F1F700C021E048
:1004700040E060E080E30E940A01809303408091A5
:100480000340882319F080910340089582E48A95FF
:10049000F1F700C021E040E060E080E20E940A0144
:1004A0008093034080910340882319F0809103409A
:1004B000089591E39A95F1F7000020E040E060E0B4
:1004C00088E20E940A0180930340809103408823C0
:1004D00019F080910340089581E38A95F1F70000B7
:1004E00081E00E945B018093034080910340882358
:1004F00019F08091034008950E94B1018093034058
:1005000080910340882319F08091034008950E9450
:10051000EB018093034080910340882319F0809180
:100520000340089581E00E948101809303408091FF
:10053000034081118091034008955F926F927F92F2
:100540008F929F92AF92BF92CF92DF92EF92FF92E3
:100550000F931F93CF93DF93582E4A015B01C22F55
:100560000E94B101C11103C0E12CF12C05C00F2E76
:10057000FFE0EF2EF12CF02DC11105C06894CC24C2
:10058000C4F8D12C03C0CC24CA94DC2CC11103C004
:1005900001E010E002C00FEF1FEF612C712C23C0AF
:1005A000662D8C2F0E94C201852D0E94DD0180E006
:1005B00090E0DC0109C0E7EEF3E03197F1F700C00D
:1005C00000000196A11DB11D88159905AA05BB055E
:1005D00090F3C00FD11F01C0E701CC15DD0501F775
:1005E000FFEF6F1A7F0A22E062167104ACF38FE707
:1005F0009AE1E6E081509040E040E1F700C0000061
:1006000066246394712C28C0E601C01BD10B1BC06B
:10061000662D8C2F0E94C20180E20E94DD0180E0E5
:1006200090E0DC0109C0E7EEF3E03197F1F700C09C
:1006300000000196A11DB11D88159905AA05BB05ED
:1006400090F3C01BD10BC701801B910BC817D907B2
:10065000F9F6F1E06F1A71087720B4F6DF91CF91C7
:100660001F910F91FF90EF90DF90CF90BF90AF90D0
:100670009F908F907F906F905F9008950E94FA01F5
:100680008FEF8093600490E003C091E001C090E0A0
:1006900080914804807FA9F1911133C0803299F094
:1006A00018F4803131F0F1CF8034B9F08038F9F0AE
:1006B000ECCF20E04CE350E060E070E08AE20E9482
:1006C0009D0291E0E5CF21E044E150E060E070E080
:1006D00083E20E949D0291E0DBCF20E048E250E0FF
:1006E00060E070E080E30E949D0291E0D1CF21E0C4
:1006F0004AE050E060E070E088E50E949D0291E0F1
:10070000C7CF80914804807F09F4C1CFC1CFF8944E
:02071000FFCF19
:020712000040A5
:00000001FF