S01200005072616B74696B756D392E7372656321
S11300000C947A000C948C000C948C000C948C004E
S11300100C948C000C948C000C948C000C948C002C
S11300200C948C000C948C000C948C000C948C001C
S11300300C948C000C948C000C948C000C948C000C
S11300400C948C000C948C000C948C000C948C00FC
S11300500C948C000C948C000C948C000C948C00EC
S11300600C94A5000C948C000C948C000C948C00C3
S11300700C948C000C948C000C948C000C948C00CC
S11300800C948C000C948C000C948C000C948C00BC
S11300900C948C000C948C000C948C000C948C00AC
S11300A00C948C000C948C000C948C000C948C009C
S11300B00C948C000C948C000C948C000C948C008C
S11300C00C948C000C948C000C948C000C948C007C
S11300D00C948C000C948C000C948C000C948C006C
S11300E00C948C000C948C000C948C000C948C005C
S11300F00C948C0011241FBECFEFCDBFDFE7DEBF11
S113010020E4A0E0B0E401C01D92A630B207E1F7FC
S11301100E94D9000C94E1000C940000E0E6F4E0A5
S113012084E0828388E0828B81E081830895E0E02B
S1130130FAE0118210A211A289E080830895E0E61A
S1130140F4E082898160828B08951F920F920FB62A
S11301500F9211242F933F934F935F938F939F9309
S11301608091200A9091210A20910240309103400D
S1130170AC01421B530B40930040509301408093C9
S113018002409093034080910540882321F010920F
S113019005408091044084E0809369049F918F918D
S11301A05F914F913F912F910F900FBE0F901F9031
S11301B018950E948E000E9497000E949F007894D8
S10901C0FFCFF894FFCF0D
S9030000FC
