:100000000C947A000C9499000C9499000C9499002B
:100010000C9499000C9499000C9499000C949900FC
:100020000C9499000C9499000C9499000C949900EC
:100030000C9499000C9499000C9499000C949900DC
:100040000C9499000C9499000C9499000C949900CC
:100050000C9499000C9499000C9499000C949900BC
:100060000C9499000C9499000C9499000C949900AC
:100070000C9499000C9499000C9499000C9499009C
:100080000C9499000C9499000C9499000C9499008C
:100090000C9499000C9499000C9499000C9499007C
:1000A0000C9499000C9499000C9499000C9499006C
:1000B0000C9499000C9499000C9499000C9499005C
:1000C0000C9499000C9499000C9499000C9499004C
:1000D0000C9499000C9499000C9499000C9499003C
:1000E0000C9499000C9499000C9499000C9499002C
:1000F0000C94990011241FBECFEFCDBFDFE7DEBF08
:1001000010E4A0E0B0E4E8E7F1E000E00BBF02C0DB
:1001100007900D92A030B107D9F720E4A0E0B0E439
:1001200001C01D92A030B207E1F70E949B000C9421
:10013000BA000C940000E0E6F4E081E080831482D1
:1001400083E08093E605E0E0FAE0808184608083CC
:1001500081818360818381818061818383E690E0F6
:1001600086A397A389E190E080A791A78081816011
:080170008083FFCFF894FFCF5C
:00000001FF
