:100000000C947A000C9499000C9499000C9499002B
:100010000C9499000C9499000C9499000C949900FC
:100020000C9499000C9420010C9499000C94990064
:100030000C9499000C9499000C9499000C949900DC
:100040000C9499000C9499000C9499000C949900CC
:100050000C9499000C9499000C9499000C949900BC
:100060000C9499000C9499000C9499000C949900AC
:100070000C9499000C9499000C9499000C9499009C
:100080000C9499000C9499000C9499000C9499008C
:100090000C9499000C9499000C9499000C9499007C
:1000A0000C9499000C9499000C9499000C9499006C
:1000B0000C9499000C9499000C9499000C9499005C
:1000C0000C9499000C9499000C9499000C9499004C
:1000D0000C9499000C9499000C9499000C9499003C
:1000E0000C9499000C9499000C9499000C9499002C
:1000F0000C94990011241FBECFEFCDBFDFE7DEBF08
:1001000010E4A0E0B0E4ECE6F2E000E00BBF02C0D7
:1001100007900D92A230B107D9F720E4A2E0B0E435
:1001200001C01D92A630B207E1F70E949B000C941B
:1001300034010C94000087E08093800484E0809375
:10014000E605E0E0FAE0808184608083818183605D
:1001500081838181806181838181806281838181CA
:100160008064818383E690E086A397A38285816083
:10017000828780818160808378949091054080910E
:1001800001409817D0F380910240813001F118F0BE
:100190008230C9F152C0809100408823A1F02091A3
:1001A0000440243680F481508093004090E0E0E0E9
:1001B000FAE080A791A72F5F20930440822F90E060
:1001C00082A793A73AC081E08093024036C0809115
:1001D00004408823A1F020910340243680F481500C
:1001E0008093044090E0E0E0FAE082A793A72F5FBD
:1001F00020930340822F90E084A795A71EC082E041
:10020000809302401AC0809103408823A1F020917E
:100210000040243680F481508093034090E0E0E079
:10022000FAE084A795A72F5F20930040822F90E0EB
:1002300080A791A702C010920240109205409DCF66
:100240001F920F920FB60F9211248F938091054049
:100250008F5F8093054081E080930B0A8F910F9010
:0C0260000FBE0F901F901895F894FFCF70
:02026C006464C8
:00000001FF
