:100000000C947A000C9499000C9499000C9499002B
:100010000C9499000C9499000C9499000C949900FC
:100020000C9499000C944A010C9499000C9499003A
:100030000C9499000C9499000C9499000C949900DC
:100040000C9499000C9499000C9499000C949900CC
:100050000C9499000C9499000C9499000C949900BC
:100060000C9499000C9499000C9499000C949900AC
:100070000C9499000C9499000C9499000C9499009C
:100080000C9499000C9499000C9499000C9499008C
:100090000C9499000C9499000C9499000C9499007C
:1000A0000C9499000C9499000C9499000C9499006C
:1000B0000C9499000C9499000C9499000C9499005C
:1000C0000C9499000C9499000C9499000C9499004C
:1000D0000C9499000C9499000C9499000C9499003C
:1000E0000C9499000C9499000C9499000C9499002C
:1000F0000C94990011241FBECFEFCDBFDFE7DEBF08
:1001000012E4A0E0B0E4E6E8F7E000E00BBF02C0D4
:1001100007900D92A831B107D9F722E4A8E1B2E423
:1001200001C01D92AE31B207E1F70E9440010C946C
:10013000C1030C94000081E08093B200E0EAF6E095
:10014000128280E8838381E48083089580E4809331
:100150006104E0E0FAE081E0828785E08083089531
:100160000024969587950794969587950794982FE0
:10017000802D9C0140E050E060E472E48FE090E06C
:100180000E949F03215031092093260A3093270AA9
:100190000895CF92DF92EF92FF920F931F93CF9328
:1001A000DF938C01C0E0D0E05BC0F8016081718119
:1001B00080E69AEE0E948B0380E090E0FE01EA590F
:1001C000FF4FEE0FFF1FE00FF11F2081318140E054
:1001D00050E00E949F0369017A0180E090E0A0E86E
:1001E000BFE38093004090930140A0930240B093FE
:1001F000034026C060910040709101408091024010
:10020000909103402DEC3CEC4CE45DE30E94F50240
:100210001816B4F460910040709101408091024042
:10022000909103402DEC3CEC4CE45DE30E94CB014B
:10023000609300407093014080930240909303408C
:10024000C114D104E104F104A9F6FE013296EE0FC7
:10025000FF1FE00FF11F808191810E94B000219665
:10026000F80182819381C817D90708F49ECFDF91E6
:10027000CF911F910F91FF90EF90DF90CF90089555
:100280000E949B000E94A600789484E890E40E945B
:10029000C900FBCF1F920F920FB60F9211240BB61D
:1002A0000F92CF92DF92EF92FF922F933F934F9353
:1002B0005F936F937F938F939F93AF93BF93EF93CE
:1002C000FF93E0911C42F0911D42EE0FFF1FEC5F87
:1002D000FF4B60817181C0900040D0900140E09060
:1002E0000240F090034080E090E00E946702A70186
:1002F00096010E94FA020E943802262F2295220FB0
:10030000220F207CE0EAF6E02283769567957695C9
:100310006795638380911C4290911D420196809362
:100320001C4290931D4280911C4290911D4280344A
:10033000910520F010921C4210921D4280911842AB
:1003400090911942A0911A42B0911B420196A11DB1
:10035000B11D8093184290931942A0931A42B09312
:100360001B4281E080930B0AFF91EF91BF91AF9107
:100370009F918F917F916F915F914F913F912F91BD
:10038000FF90EF90DF90CF900F900BBE0F900FBEBD
:100390000F901F9018955058BB27AA270E94E30181
:1003A0000C94BB020E94AD0238F00E94B40220F00F
:1003B00039F49F3F19F426F40C94AA020EF4E09548
:1003C000E7FB0C94A402E92F0E94CC0258F3BA1761
:1003D000620773078407950720F079F4A6F50C945B
:1003E000EE020EF4E0950B2EBA2FA02D0B01B901F1
:1003F00090010C01CA01A0011124FF27591B99F09B
:10040000593F50F4503E68F11A16F040A22F232FA6
:10041000342F4427585FF3CF469537952795A795F6
:10042000F0405395C9F77EF41F16BA0B620B730B9D
:10043000840BBAF09150A1F0FF0FBB1F661F771F0E
:10044000881FC2F70EC0BA0F621F731F841F48F4C3
:10045000879577956795B795F7959E3F08F0B0CF4C
:100460009395880F08F09927EE0F97958795089533
:100470000E94D40288F09F5798F0B92F9927B7515E
:10048000B0F0E1F0660F771F881F991F1AF0BA9538
:10049000C9F714C0B13091F00E94EE02B1E00895A6
:1004A0000C94EE02672F782F8827B85F39F0B93F98
:1004B000CCF3869577956795B395D9F73EF49095EB
:1004C0008095709561957F4F8F4F9F4F0895E89469
:1004D00009C097FB3EF490958095709561957F4F8C
:1004E0008F4F9F4F9923A9F0F92F96E9BB2793953A
:1004F000F695879577956795B795F111F8CFFAF44A
:10050000BB0F11F460FF1BC06F5F7F4F8F4F9F4F7A
:1005100016C0882311F096E911C0772321F09EE8D8
:10052000872F762F05C0662371F096E8862F70E03E
:1005300060E02AF09A95660F771F881FDAF7880F18
:100540009695879597F9089597F99F6780E870E0E9
:1005500060E008959FEF80EC089500240A94161639
:10056000170618060906089500240A9412161306A1
:10057000140605060895092E0394000C11F488232F
:1005800052F0BB0F40F4BF2B11F460FF04C06F5F4B
:100590007F4F8F4F9F4F089557FD9058440F551F21
:1005A00059F05F3F71F04795880F97FB991F61F0F5
:1005B0009F3F79F087950895121613061406551F6C
:1005C000F2CF4695F1DF08C0161617061806991FD8
:1005D000F1CF86957105610508940895E894BB27CD
:1005E00066277727CB0197F908950E94670308F4DF
:1005F0008FEF08950E940D030C94BB020E94AD0280
:1006000038F00E94B40220F0952311F00C94A4025B
:100610000C94AA0211240C94EF020E94CC0270F3F5
:10062000959FC1F3950F50E0551F629FF001729F97
:10063000BB27F00DB11D639FAA27F00DB11DAA1FA6
:10064000649F6627B00DA11D661F829F2227B00DF3
:10065000A11D621F739FB00DA11D621F839FA00D7E
:10066000611D221F749F3327A00D611D231F849FCE
:10067000600D211D822F762F6A2F11249F57504025
:100680009AF0F1F088234AF0EE0FFF1FBB1F661FA0
:10069000771F881F91505040A9F79E3F510580F069
:1006A0000C94A4020C94EF025F3FE4F3983ED4F361
:1006B000869577956795B795F795E7959F5FC1F70D
:1006C000FE2B880F911D9695879597F90895990FA0
:1006D0000008550FAA0BE0E8FEEF16161706E8070C
:1006E000F907C0F012161306E407F50798F0621B2D
:1006F000730B840B950B39F40A2661F0232B242B02
:10070000252B21F408950A2609F4A140A6958FEF20
:10071000811D811D0895AA1BBB1B51E107C0AA1FA3
:10072000BB1FA617B70710F0A61BB70B881F991F92
:100730005A95A9F780959095BC01CD010895A1E245
:100740001A2EAA1BBB1BFD010DC0AA1FBB1FEE1F4B
:10075000FF1FA217B307E407F50720F0A21BB30B96
:10076000E40BF50B661F771F881F991F1A9469F712
:1007700060957095809590959B01AC01BD01CF016E
:060780000895F894FFCF7C
:1007860000007F430002320263029402C302F102B8
:100796001C03440369038B03A903C303D803E903BA
:1007A600F503FD03FF03FD03F503E903D803C303C4
:1007B600A9038B03690344031C03F102C3029402D9
:1007C600630232020002CD019C016B013C010E0165
:1007D600E300BB009600740056003C00270016009C
:1007E6000A000200000002000A00160027003C0072
:1007F600560074009600BB00E3000E013C016B013D
:100806009C01CD014A01640005010100C3000100FD
:10081600A4000100DC00F600E900DC000100C300D2
:1008260049018701B8015D01870101004901050100
:100836002501F600010005010100C3000100A40026
:100846000100DC00F600E900DC000100C3004901FC
:100856008701B8015D018701490105012501F600FF
:100866000100820001005D0171015D013701010097
:1008760049010100CF00DC0005010100DC00050193
:10088600250182000100870171015D013701010028
:100896004901CF00DC0005010100DC00050125014E
:1008A6000100370101002501010005010100C30017
:1008B600C3000100C30000000000000000000000AB
:1008C6000000000000000000000000000000000022
:1008D6000200010002000100020001000200020005
:1008E60001000100010002000100010002000100F8
:1008F60001000100020001000100010002000200E7
:1009060001000200010002000100020002000100D5
:1009160001000100020001000100020001000100C7
:1009260002000100010001000200010001000100B7
:1009360001000100010001000100010001000100A9
:100946000100010001000100010001000100010099
:100956000100010001000100010001000100010089
:100966000100010001000100020001000200010077
:100976000200010002000100010001000100000068
:100986000000000000000000000000000000000061
:08099600000000000000000059
:00000001FF
