S01200005072616B74696B756D362E7372656324
S11300000C947A000C9491000C9491000C9491003F
S11300100C9491000C9491000C9491000C94910018
S11300200C9491000C94A7000C9491000C94F6008D
S11300300C9491000C9491000C9491000C949100F8
S11300400C9491000C9491000C9491000C949100E8
S11300500C9491000C9491000C9491000C949100D8
S11300600C9491000C9491000C9491000C949100C8
S11300700C9491000C9491000C9491000C949100B8
S11300800C9491000C9491000C9491000C949100A8
S11300900C9491000C9491000C9491000C94910098
S11300A00C9491000C9491000C9491000C94910088
S11300B00C9491000C9491000C9491000C94910078
S11300C00C9491000C9491000C9491000C94910068
S11300D00C9491000C9491000C9491000C94910058
S11300E00C9491000C9491000C9491000C94910048
S11300F00C94910011241FBECFEFCDBFDFE7DEBF0C
S113010010E4A0E0B0E4EAE1F2E000E00BBF02C0DA
S113011007900D92A430B107D9F70E9407010C94FF
S11301200B010C94000080E18093A104E0E0FAE06C
S113013088E893E186A397A38091024090910340BD
S113014080A791A781E1828789E0808308951F9227
S11301500F920FB60F9211240BB60F922F933F9369
S11301608F939F93EF93FF93E0E0FAE081E083871E
S113017080E18093A504809102409091034080A780
S113018091A72091004030910140809102409091CC
S11301900340820F931F8093024090930340809109
S11301A0024090910340843F914030F08FEF9FEFE5
S11301B080930040909301408091024090910340CD
S11301C08B3F910530F481E090E080930040909360
S11301D00140FF91EF919F918F913F912F910F904B
S11301E00BBE0F900FBE0F901F9018951F920F9289
S11301F00FB60F9211248F9380E180930B0A8093A2
S1130200A6048F910F900FBE0F901F9018950E9417
S10D021093007894FFCFF894FFCF19
S107021A0100960045
S9030000FC
