:100000000C947A000C9499000C9499000C9499002B
:100010000C9499000C9499000C9499000C949900FC
:100020000C9499000C9499000C9499000C949900EC
:100030000C9499000C9499000C949B000C949900DA
:100040000C9499000C9499000C9499000C949900CC
:100050000C9499000C9499000C9499000C949900BC
:100060000C9499000C9499000C9499000C949900AC
:100070000C9499000C9499000C9499000C9499009C
:100080000C9499000C9499000C9499000C9499008C
:100090000C9499000C9499000C9499000C9499007C
:1000A0000C9499000C9499000C9499000C9499006C
:1000B0000C9499000C9499000C9499000C9499005C
:1000C0000C9499000C9499000C9499000C9499004C
:1000D0000C9499000C9499000C9499000C9499003C
:1000E0000C9499000C9499000C9499000C9499002C
:1000F0000C94990011241FBECFEFCDBFDFE7DEBF08
:1001000010E4A0E0B0E4EAE7F2E000E00BBF02C0D8
:1001100007900D92A230B107D9F720E4A2E0B0E435
:1001200001C01D92A430B207E1F70E94DB000C94DD
:100130003B010C9400001F920F920FB60F921124F6
:100140002F933F938F939F9381E08093060B809131
:1001500002409091034001968093024090930340A7
:100160008091024090910340019719F480E18093BF
:10017000A50420910240309103408091004090916D
:1001800001402817390719F480E18093A604809173
:10019000024090910340803D974020F01092024031
:1001A000109203409F918F913F912F910F900FBE1E
:1001B0000F901F901895CF93DF93CDB7DEB7289798
:1001C000CDBFDEBF80E18093A104E0E0FBE088E2E8
:1001D00090E084879587118281E08583808378947D
:1001E00024E630E01FC020930040309301401D8280
:1001F0001E821F8218860BC08D819E81AF81B885BB
:100200000196A11DB11D8D839E83AF83B8878D811B
:100210009E81AF81B88580319742A105B10560F319
:100220002F5F3F4F293C3105F0F228EC30E01FC032
:10023000209300403093014019821A821B821C8255
:100240000BC089819A81AB81BC810196A11DB11D32
:1002500089839A83AB83BC8389819A81AB81BC817A
:1002600080319742A105B10560F321503109243650
:0A0270003105F4F6B5CFF894FFCF86
:02027A009600EC
:00000001FF
