:100000000C947A000C9499000C9499000C9499002B
:100010000C9499000C9499000C9499000C949900FC
:100020000C9499000C945E010C9499000C94990026
:100030000C9499000C9499000C9499000C949900DC
:100040000C9499000C9499000C9499000C949900CC
:100050000C9499000C9499000C9499000C949900BC
:100060000C9499000C9499000C9499000C949900AC
:100070000C9499000C9499000C9499000C9499009C
:100080000C9499000C9499000C9499000C9499008C
:100090000C9499000C9499000C9499000C9499007C
:1000A0000C9499000C9499000C9499000C9499006C
:1000B0000C9499000C9499000C9499000C9499005C
:1000C0000C9499000C9499000C9499000C9499004C
:1000D0000C9499000C9499000C9499000C9499003C
:1000E0000C9499000C9499000C9499000C9499002C
:1000F0000C94990011241FBECFEFCDBFDFE7DEBF08
:1001000010E4A0E0B0E4EAE9F3E000E00BBF02C0D5
:1001100007900D92A038B107D9F720E4A0E8B0E429
:1001200001C01D92A438B207E1F70E94FF000C94B1
:10013000CB010C94000081E08093B200E0EAF6E08D
:10014000128280E8838381E480830895E0E0F4E014
:100150008CEF8283A0E2B4E081E012968C93129738
:1001600088E0828B838B848B858B868B878B5096E4
:100170008C93089580E480936104E0E0FAE081E0EC
:10018000828789E0808308958091804090918140AA
:10019000892B29F4E0EAF6E0128280E88383E0917B
:1001A0008240F0918340EE0FFF1FE050F04C8081C1
:1001B0009181282F2370E0EAF6E0228396958795B7
:1001C00096958795838308950097C1F09C0100243C
:1001D000369527950794369527950794322F202D2D
:1001E00040E050E060EA76E881E090E00E94A901FA
:1001F000215031092093260A3093270A08950E943E
:100200009B000E94A6000E94BA00809180409091BD
:1002100081400E94E40078948091080482FD07C028
:1002200082E890E08093804090938140F5CF809168
:10023000080483FD07C082E990E08093804090939A
:100240008140EACF8091080484FD07C084EA90E0F1
:100250008093804090938140DFCF8091080485FD9A
:1002600007C08EEA90E08093804090938140D4CF85
:100270008091080486FD07C083EC90E08093804065
:1002800090938140C9CF8091080488233CF086EF89
:1002900090E08093804090938140BECF809128046D
:1002A00080FD07C08CED90E080938040909381406A
:1002B000B3CF1092804010928140AECF1F920F9228
:1002C0000FB60F9211240BB60F922F933F934F93BB
:1002D0005F936F937F938F939F93AF93BF93EF93AE
:1002E000FF938091804090918140892B31F4E0EA26
:1002F000F6E0128280E8838316C00E94C4008091D9
:1003000082409091834001968093824090938340F5
:1003100080918240909183408034910520F010922A
:1003200082401092834081E080930B0AFF91EF910D
:10033000BF91AF919F918F917F916F915F914F91FD
:100340003F912F910F900BBE0F900FBE0F901F90FB
:100350001895A1E21A2EAA1BBB1BFD010DC0AA1FF6
:10036000BB1FEE1FFF1FA217B307E407F50720F01E
:10037000A21BB30BE40BF50B661F771F881F991F99
:100380001A9469F760957095809590959B01AC01E2
:0A039000BD01CF010895F894FFCFDE
:10039A000002320263029402C302F1021C03440304
:1003AA0069038B03A903C303D803E903F503FD0318
:1003BA00FF03FD03F503E903D803C303A9038B0372
:1003CA00690344031C03F102C3029402630232026A
:1003DA000002CD019C016B013C010E01E300BB0050
:1003EA009600740056003C00270016000A0002001E
:1003FA00000002000A00160027003C0056007400A4
:10040A009600BB00E3000E013C016B019C01CD018B
:00000001FF
