S00D0000426F6E75732E7372656310
S11300000C947A000C9499000C9499000C94990027
S11300100C9499000C9499000C9499000C949900F8
S11300200C9499000C94D3000C9499000C949900AE
S11300300C9499000C9499000C9499000C949900D8
S11300400C9499000C9499000C9499000C949900C8
S11300500C9499000C9499000C9499000C949900B8
S11300600C9499000C9499000C9499000C949900A8
S11300700C9499000C9499000C9499000C94990098
S11300800C9499000C9499000C9499000C94990088
S11300900C9499000C9499000C9499000C94990078
S11300A00C9499000C9499000C9499000C94990068
S11300B00C9499000C9499000C9499000C94990058
S11300C00C9499000C9499000C9499000C94990048
S11300D00C9499000C9499000C9499000C94990038
S11300E00C9499000C9499000C9499000C94990028
S11300F00C94990011241FBECFEFCDBFDFE7DEBF04
S113010010E4A0E0B0E4EAE7F2E000E00BBF02C0D4
S113011007900D92A038B107D9F720E4A0E8B0E425
S113012001C01D92A238B207E1F70E94C9000C94E5
S11301303B010C94000081E08093B200E0EAF6E019
S1130140128280E8838381E48083089580E480932D
S11301506104E0E0FAE081E0828785E0808308952D
S11301600024969587950794969587950794982FDC
S1130170802D9C0140E050E060E472E48FE090E068
S11301800E941901215031092093260A3093270A2D
S113019008950E949B000E94A6008DEE91E00E94AB
S11301A0B0007894FFCF1F920F920FB60F921124D4
S11301B00BB60F922F938F939F93EF93FF93E0913E
S11301C08040F0918140EE0FFF1FE050F04C8081A1
S11301D09181282F2295220F220F207CE0EAF6E05D
S11301E02283969587959695879583838091804001
S11301F090918140019680938040909381408091BA
S11302008040909181408034910520F0109280408C
S11302101092814081E080930B0AFF91EF919F91AE
S11302208F912F910F900BBE0F900FBE0F901F90C8
S11302301895A1E21A2EAA1BBB1BFD010DC0AA1F13
S1130240BB1FEE1FFF1FA217B307E407F50720F03B
S1130250A21BB30BE40BF50B661F771F881F991FB6
S11302601A9469F760957095809590959B01AC01FF
S10D0270BD01CF010895F894FFCFFB
S113027A0002320263029402C302F1021C03440321
S113028A69038B03A903C303D803E903F503FD0335
S113029AFF03FD03F503E903D803C303A9038B038F
S11302AA690344031C03F102C30294026302320287
S11302BA0002CD019C016B013C010E01E300BB006D
S11302CA9600740056003C00270016000A0002003B
S11302DA000002000A00160027003C0056007400C1
S11302EA9600BB00E3000E013C016B019C01CD01A9
S9030000FC
