:100000000C947A000C9499000C9499000C9499002B
:100010000C9499000C9499000C9499000C949900FC
:100020000C9499000C9499000C9499000C949900EC
:100030000C9499000C9499000C9499000C949900DC
:100040000C9499000C9499000C9499000C949900CC
:100050000C9499000C9499000C9499000C949900BC
:100060000C9499000C9499000C9499000C949900AC
:100070000C9499000C9499000C9499000C9499009C
:100080000C9499000C9499000C9499000C9499008C
:100090000C9499000C9499000C9499000C9499007C
:1000A0000C9499000C9499000C9499000C9499006C
:1000B0000C9499000C9499000C9499000C9499005C
:1000C0000C9499000C9499000C9499000C9499004C
:1000D0000C9499000C9499000C9499000C9499003C
:1000E0000C9499000C9499000C9499000C9499002C
:1000F0000C94990011241FBECFEFCDBFDFE7DEBF08
:1001000010E4A0E0B0E4EAEBF6E000E00BBF02C0D0
:1001100007900D92A030B107D9F720E4A0E0B0E439
:1001200001C01D92A230B207E1F70E94E7020C94D1
:100130005B030C9400008091050985FD0DC0809142
:10014000050982FD09C08091050983FD05C08091E4
:1001500005098370833079F708958091050982FF3E
:1001600004C083E08093040908958091050983FF0A
:1001700005C083E08093040984E008958091050917
:1001800082FF05C083E08093040981E00895809197
:1001900005098370833021F48093040982E0089577
:1001A00080E00895E0E0F9E084E0808381E08283EC
:1001B0009DEF95839FE0968383830895CF939091DD
:1001C000050990FF24C0C62F880F809307090E945D
:1001D0009B000E94AD0080930140809101408823E4
:1001E00019F08091014014C0C09308090E949B003F
:1001F0000E94AD008093014080910140882319F056
:100200008091014005C093E09093040901C082E011
:10021000CF910895FF920F931F93CF93DF93F22E08
:10022000C82FC07F90E1899F80011124611102C015
:10023000D0E001C0D1E04111DE5FCD0F6091004000
:100240006C0F6C5F87E20E94DE00811129C088E29A
:100250008A95F1F7609100406C0F87E20E94DE0002
:10026000811120C091E39A95F1F70000F1101DC0B3
:100270000D0F60910040600F6C5F87E20E94DE000E
:10028000811112C088E28A95F1F7D0910040602F69
:100290006D0F87E20E94DE00882339F081E005C0FF
:1002A00081E003C081E001C081E0DF91CF911F9127
:1002B0000F91FF900895882379F020E040E060E0FE
:1002C0008CE00E940A0180930140809101408823C4
:1002D00091F080910140089520E040E060E088E0E6
:1002E0000E940A018093014080910140882319F007
:1002F00080910140089581E38A95F1F7000080E044
:1003000008958823A1F08091004088608093004088
:1003100020E040E060E08CE00E940A018093014010
:10032000809101408823B9F0809101400895809127
:100330000040877F8093004020E040E060E088E05C
:100340000E940A018093014080910140882319F0A6
:1003500080910140089581E38A95F1F7000080E0E3
:10036000089520E040E060E081E00E940A018111F0
:1003700007C0EFE3F6E03197F1F700C00000089501
:1003800081E0089520E040E061E00E940A018111CF
:1003900005C096E39A95F1F700C0089581E00895AD
:1003A00020E040E060E086E00E940A01811105C083
:1003B00091E39A95F1F70000089581E008950E9475
:1003C000D20060E087E20E94DE00809301408091CD
:1003D0000140882319F08091014008958FE493EC47
:1003E0000197F1F700C0000021E040E060E080E309
:1003F0000E940A018093014080910140882319F0F6
:1004000080910140089587E893E10197F1F700C0DA
:10041000000021E040E060E080E30E940A01809358
:10042000014080910140882319F080910140089596
:1004300092E99A95F1F700C021E040E060E080E3A6
:100440000E940A018093014080910140882319F0A5
:1004500080910140089582E48A95F1F700C021E07F
:1004600040E060E080E20E940A01809301408091B8
:100470000140882319F080910140089591E39A95F5
:10048000F1F7000020E040E060E088E20E940A010D
:100490008093014080910140882319F080910140B0
:1004A000089581E38A95F1F7000081E00E945B01E5
:1004B0008093014080910140882319F08091014090
:1004C00008950E94B10180930140809101408823EA
:1004D00019F08091014008950E94D001809301405D
:1004E00080910140882319F080910140089581E0B6
:1004F0000E9481018093014080910140811180918F
:10050000014008951F93CF93DF93CDB7DEB72B97AC
:10051000CDBFDEBF10E013C02AE030E040E050E085
:100520000E943903E1E0F0E0EC0FFD1FE10FF11D47
:10053000605D6083622F732F842F952F1F5F61157D
:1005400071058105910541F70AC01150E1E0F0E025
:10055000EC0FFD1FE10FF11D80810E94C2011111FE
:10056000F4CF2B96CDBFDEBFDF91CF911F910895C1
:10057000CF92DF92EF92FF926B017C010E94B1015A
:100580008FED9EE20197F1F700C00000C114D10485
:10059000E104F10421F480E30E94C20113C0FF20B2
:1005A0006CF48DE20E94C20166277727CB016C199B
:1005B0007D098E099F090E94820204C0C701B6010D
:1005C0000E948202FF90EF90DF90CF9008950E94EA
:1005D000DF0181E00E94810160E070E0CB010E94B8
:1005E000B802E0E2F4E08FE0828388E0808B818BC8
:1005F000828B838B90E0C12CD12C760180912804D2
:10060000282F2F70992319F0913031F1F7CF2F3027
:10061000A9F380FD06C02FEFC21AD20AE20AF20A3D
:1006200015C081FD06C081E0C81AD108E108F108B3
:100630000DC082FD05C0CC0CDD1CEE1CFF1C06C0ED
:1006400083FD04C0F594E794D794C794C701B6011D
:100650000E94B80291E0D2CF2F3081F69FEF26E7BB
:1006600081E0915020408040E1F700C0000090E020
:10067000C5CFA1E21A2EAA1BBB1BFD010DC0AA1FEC
:10068000BB1FEE1FFF1FA217B307E407F50720F0FB
:10069000A21BB30BE40BF50B661F771F881F991F76
:1006A0001A9469F760957095809590959B01AC01BF
:0A06B000BD01CF010895F894FFCFBB
:00000001FF
