S01200005072616B74696B756D352E7372656325
S11300000C947A000C9499000C9499000C94990027
S11300100C9499000C9499000C9499000C949900F8
S11300200C9499000C94C7020C9499000C949900B8
S11300300C9499000C9499000C9499000C949900D8
S11300400C9499000C9499000C9499000C949900C8
S11300500C9499000C9499000C9499000C949900B8
S11300600C9499000C9499000C9499000C949900A8
S11300700C9499000C9499000C9413030C9499001B
S11300800C9499000C9499000C9499000C94990088
S11300900C9499000C9499000C9499000C94990078
S11300A00C9499000C9499000C9499000C94990068
S11300B00C9499000C9499000C9499000C94990058
S11300C00C9499000C9499000C9499000C94990048
S11300D00C9499000C9499000C9499000C94990038
S11300E00C9499000C9499000C9499000C94990028
S11300F00C94990011241FBECFEFCDBFDFE7DEBF04
S113010010E4A0E0B0E4E4E2FDE000E00BBF02C0D4
S113011007900D92A830B107D9F720E4A8E0B0E425
S113012001C01D92A031B207E1F70E9450030C9464
S113013090060C9400008091050985FD0DC0809106
S1130140050982FD09C08091050983FD05C08091E0
S113015005098370833079F708958091050982FF3A
S113016004C083E08093040908958091050983FF06
S113017005C083E08093040984E008958091050913
S113018082FF05C083E08093040981E00895809193
S113019005098370833021F48093040982E0089573
S11301A080E00895E0E0F9E084E0808381E08283E8
S11301B09DEF95839FE0968383830895CF939091D9
S11301C0050990FF24C0C62F880F809307090E9459
S11301D09B000E94AD0080930940809109408823D0
S11301E019F08091094014C0C09308090E949B0033
S11301F00E94AD008093094080910940882319F042
S11302008091094005C093E09093040901C082E005
S1130210CF910895FF920F931F93CF93DF93F22E04
S1130220C82FC07F90E1899F80011124611102C011
S1130230D0E001C0D1E04111DE5FCD0F60910840F4
S11302406C0F6C5F87E20E94DE00811129C088E296
S11302508A95F1F7609108406C0F87E20E94DE00F6
S1130260811120C091E39A95F1F70000F1101DC0AF
S11302700D0F60910840600F6C5F87E20E94DE0002
S1130280811112C088E28A95F1F7D0910840602F5D
S11302906D0F87E20E94DE00882339F081E005C0FB
S11302A081E003C081E001C081E0DF91CF911F9123
S11302B00F91FF900895882379F020E040E060E0FA
S11302C08CE00E940A0180930940809109408823B0
S11302D091F080910940089520E040E060E088E0DA
S11302E00E940A018093094080910940882319F0F3
S11302F080910940089581E38A95F1F7000080E038
S113030008958823A1F08091084088608093084074
S113031020E040E060E08CE00E940A018093094004
S1130320809109408823B9F0809109400895809113
S11303300840877F8093084020E040E060E088E048
S11303400E940A018093094080910940882319F092
S113035080910940089581E38A95F1F7000080E0D7
S1130360089520E040E060E081E00E940A018111EC
S113037007C0EFE3F6E03197F1F700C000000895FD
S113038081E00895803108F08FE0623008F061E088
S1130390E62FF0E0EF5FFF4B9081890F20E040E013
S11303A060E080580E940A01811105C091E39A958A
S11303B0F1F70000089581E00895CF93DF93EC01F5
S11303C00CC020E040E061E00E940A01811109C0F4
S11303D0219686E38A95F1F700C088818111F1CFD7
S11303E001C081E0DF91CF91089520E040E060E01A
S11303F086E00E940A01811105C091E39A95F1F704
S11304000000089581E008950E94D20060E087E230
S11304100E94DE008093094080910940882319F0EE
S11304208091094008958FE493EC0197F1F700C09F
S1130430000021E040E060E080E30E940A01809334
S1130440094080910940882319F08091094008955A
S113045087E893E10197F1F700C0000021E040E054
S113046060E080E30E940A01809309408091094082
S1130470882319F080910940089592E99A95F1F73B
S113048000C021E040E060E080E30E940A01809324
S1130490094080910940882319F08091094008950A
S11304A082E48A95F1F700C021E040E060E080E258
S11304B00E940A018093094080910940882319F021
S11304C080910940089591E39A95F1F7000020E0A6
S11304D040E060E088E20E940A0180930940809134
S11304E00940882319F080910940089581E38A9591
S11304F0F1F7000081E00E945B0180930940809144
S11305000940882319F08091094008950E94B1019F
S11305108093094080910940882319F08091094013
S113052008950E94F5018093094080910940882331
S113053019F080910940089581E00E94810180931F
S1130540094080910940811180910940089597E004
S11305509093860480FF03C091E09093850481FF0B
S113056003C092E09093850482FF03C084E08093EB
S113057085040895E0E0FAE01082118282E49FE0AD
S113058086A397A381E082878FE0808308951F92DA
S11305900F920FB60F9211248F939F93AF93BF9333
S11305A080910B40882399F180910C4090910D40EB
S11305B0A0910E40B0910F40892B8A2B8B2B39F1DF
S11305C080910C4090910D40A0910E40B0910F404D
S11305D00197A109B10980930C4090930D40A09319
S11305E00E40B0930F4081E08093004080910C4016
S11305F090910D40A0910E40B0910F40892B8A2B11
S11306008B2B29F410920B4081E080930A4081E007
S113061080930B0ABF91AF919F918F910F900FBE62
S11306200F901F9018951F920F920FB60F921124DE
S11306308F939F93AF93BF938091490484FF19C014
S113064080910C4090910D40A0910E40B0910F40CC
S11306500596A11DB11D80930C4090930D40A0936D
S11306600E40B0930F4081E08093004080E180937E
S113067049048091490485FF0AC090910B4081E0B0
S1130680911180E080930B4080E280934904BF91F4
S1130690AF919F918F910F900FBE0F901F9018955F
S11306A0CF93DF93CDB7DEB76097CDBFDEBFE0E871
S11306B0F4E087E081838683E0E4F4E080E38283EE
S11306C08BE0848B858B0E94040281E00E945B0195
S11306D081E00E9481010E94B1010E94BA027894D3
S11306E080910040882339F11092004080910C40A1
S11306F090910D40A0910E40B0910F40BF93AF93E5
S11307009F938F9383E090E49F938F931F9280E154
S11307108F938E010F5F1F4F1F930F930E94A503AA
S11307200E94B10160E080E00E94C201C8010E9401
S1130730DD01CDBFDEBF80910A40882389F210928B
S11307400A4081E00E94A702CBCF0F931F93CF935F
S1130750DF93CDB7DEB72E97CDBFDEBF0D891E89DF
S11307608F89988D26E02C8309831A8397FF02C012
S113077080E090E801978D839E83AE01455E5F4FD4
S1130780698D7A8DCE0101960E94DC034D815E81D4
S113079057FD0AC02F813885421753070CF49A017C
S11307A0F801E20FF31F10822E96CDBFDEBFDF915A
S11307B0CF911F910F9108952F923F924F925F9284
S11307C06F927F928F929F92AF92BF92CF92DF925D
S11307D0EF92FF920F931F93CF93DF93CDB7DEB7C2
S11307E02B97CDBFDEBF6C017B018A01FC01168211
S11307F01782838181FFCCC1CE0101963C01F601B1
S11308009381F70193FD859193FF81917F01882363
S113081009F4BAC1853239F493FD859193FF81912E
S11308207F01853229F4B60190E00E94F605E7CFF6
S1130830912C212C312CFFE1F315D8F08B3279F077
S113084038F4803279F08332A1F4232D20611DC065
S11308508D3261F0803369F4232D216016C0832D1D
S11308608260382EE32DE4603E2E2AC0F32DF8601A
S11308701DC037FC2DC020ED280F2A3040F08E32E9
S1130880B9F436FC81C1232D2064322E19C036FE02
S113089006C08AE0989E200D1124922E11C0EAE031
S11308A02E9E200D1124222EF32DF0623F2E08C01F
S11308B08C3621F4832D8068382E02C0883641F4AA
S11308C0F70193FD859193FF81917F018111B3CF4E
S11308D0982F9F7D9554933028F40C5F1F4F9FE30E
S11308E099830DC0833631F0833771F0833509F075
S11308F059C021C0F801808189830E5F1F4F88246D
S11309008394912C530113C02801F2E04F0E511C23
S1130910F801A080B18036FE03C0692D70E002C0EA
S11309206FEF7FEFC5010E94EB054C018201F32DAF
S1130930FF773F2E16C0280122E0420E511CF80119
S1130940A080B18036FE03C0692D70E002C06FEF55
S11309507FEFC5010E94E0054C01F32DF0683F2EA6
S1130960820133FC1BC0822D90E088169906B0F4F6
S1130970B60180E290E00E94F6052A94F4CFF501D6
S113098037FC859137FE81915F01B60190E00E94AA
S1130990F60521102A9421E0821A91088114910409
S11309A071F7E8C0843611F0893641F5F80137FE55
S11309B007C060817181828193810C5F1F4F08C0E1
S11309C060817181072E000C880B990B0E5F1F4FFD
S11309D0F32DFF763F2E97FF09C090958095709573
S11309E061957F4F8F4F9F4FF0683F2E2AE030E094
S11309F0A3010E943206882E861845C0853731F43B
S1130A00232D2F7EB22E2AE030E025C0932D997F2E
S1130A10B92E8F36C1F018F4883579F0B5C0803717
S1130A2019F0883721F0B0C0E92FE061BE2EB4FE82
S1130A300DC0FB2DF460BF2E09C034FE0AC0292F5F
S1130A402660B22E06C028E030E005C020E130E088
S1130A5002C020E132E0F801B7FE07C06081718175
S1130A60828193810C5F1F4F06C06081718180E099
S1130A7090E00E5F1F4FA3010E943206882E861855
S1130A80FB2DFF773F2E36FE0DC0232D2E7FA22E89
S1130A90891458F434FE0BC032FC09C0832D8E7EB9
S1130AA0A82E05C0B82CA32C03C0B82C01C0B92CA7
S1130AB0A4FE0FC0FE01E80DF11D8081803321F4F6
S1130AC09A2D997EA92E09C0A2FE06C0B394B394B0
S1130AD004C08A2D867809F0B394A3FC11C0A0FE4B
S1130AE006C0B21488F4280C922C9B180EC0B214C1
S1130AF060F4B60180E290E00E94F605B394F7CF6B
S1130B00B21418F42B1802C0982C212CA4FE10C087
S1130B10B60180E390E00E94F605A2FE17C0A1FC96
S1130B2003C088E790E002C088E590E0B6010CC0FD
S1130B308A2D867859F0A1FE02C08BE201C080E2C2
S1130B40A7FC8DE2B60190E00E94F605891438F402
S1130B50B60180E390E00E94F6059A94F7CF8A9458
S1130B60F301E80DF11D8081B60190E00E94F605C5
S1130B708110F5CF222009F442CEB60180E290E044
S1130B800E94F6052A94F6CFF6018681978102C069
S1130B908FEF9FEF2B96CDBFDEBFDF91CF911F91DB
S1130BA00F91FF90EF90DF90CF90BF90AF909F9008
S1130BB08F907F906F905F904F903F902F9008950B
S1130BC0FC010590615070400110D8F78095909514
S1130BD08E0F9F1F0895FC01615070400190011019
S1130BE0D8F7809590958E0F9F1F08950F931F93AC
S1130BF0CF93DF93FB01238121FD03C08FEF9FEF90
S1130C002CC022FF16C046815781248135814217AA
S1130C10530744F4A081B1819D012F5F3F4F20838E
S1130C2031838C93268137812F5F3F4F268337830F
S1130C3014C08B01EC01FB010084F185E02D0995C2
S1130C40892BE1F6D80116968D919C911797019600
S1130C5016968D939C931797CE01DF91CF911F9198
S1130C600F910895FA01AA27283051F1203181F11A
S1130C70E8946F936E7F6E5F7F4F8F4F9F4FAF4FA0
S1130C80B1E03ED0B4E03CD0670F781F891F9A1FB3
S1130C90A11D680F791F8A1F911DA11D6A0F711D67
S1130CA0811D911DA11D20D009F468943F912AE073
S1130CB0269F11243019305D3193DEF6CF0108955B
S1130CC0462F4770405D4193B3E00FD0C9F7F6CF8C
S1130CD0462F4F70405D4A3318F0495D31FD405254
S1130CE0419302D0A9F7EACFB4E0A69597958795EA
S1130CF077956795BA95C9F70097610571050895C9
S1130D009B01AC010A2E0694579547953795279574
S1130D10BA95C9F7620F731F841F951FA01D08950C
S1070D20F894FFCF71
S10B0D24010040256C7500007C
S9030000FC
