S01200005072616B74696B756D372E7372656323
S11300000C947A000C9499000C9499000C94990027
S11300100C9499000C9499000C9499000C949900F8
S11300200C9499000C9499000C9499000C949900E8
S11300300C9499000C9499000C9499000C949900D8
S11300400C9499000C9499000C9499000C949900C8
S11300500C9499000C9499000C9499000C949900B8
S11300600C9499000C9499000C9499000C949900A8
S11300700C9499000C9499000C94C0000C94990071
S11300800C9499000C9499000C9499000C94990088
S11300900C9499000C9499000C9499000C94990078
S11300A00C9499000C9499000C9499000C94990068
S11300B00C9499000C9499000C9499000C94990058
S11300C00C9499000C9499000C9499000C94990048
S11300D00C9499000C9499000C9499000C94990038
S11300E00C9499000C9499000C9499000C94990028
S11300F00C94990011241FBECFEFCDBFDFE7DEBF04
S113010010E4A0E0B0E4E0E2F2E000E00BBF02C0E3
S113011007900D92A636B107D9F720E4A6E6B0E41D
S113012001C01D92A636B207E1F70E9404010C94A7
S11301300E010C940000E0E0F8E01086118680ECDB
S1130140868308959091040895FFFCCF809302085C
S11301500895CF93DF93EC0103C021960E94A2007F
S113016088818111FACFDF91CF910895E0E4F4E022
S113017080EF82838BE0848B858B868B878B0895BD
S11301801F920F920FB60F9211240BB60F922F935A
S11301903F934F935F936F937F938F939F93AF930B
S11301A0BF93CF93EF93FF93C0914904C4FF04C05E
S11301B080E090E40E94A900C5FF04C085E190E4BA
S11301C00E94A900C6FF04C08AE290E40E94A9002C
S11301D0CC2324F48FE390E40E94A900C093490443
S11301E0FF91EF91CF91BF91AF919F918F917F91AB
S11301F06F915F914F913F912F910F900BBE0F9094
S11302000FBE0F901F9018950E949B000E94B6008D
S1130210789484E590E40E94A900FFCFF894FFCF7E
S1130220427574746F6E2043342067656472FC6396
S11302306B740D0A00427574746F6E204335206729
S1130240656472FC636B740D0A00427574746F6E9E
S11302502043362067656472FC636B740D0A0042A8
S11302607574746F6E2043372067656472FC636B2A
S1130270740D0A00555341525420676573746172BA
S10902807465740D0A0010
S9030000FC
