:100000000C9480000C949F000C949F000C949F0013
:100010000C949F000C949F000C949F000C949F00E4
:100020000C949F000C949F000C949F000C949F00D4
:100030000C949F000C949F000C949F000C949F00C4
:100040000C949F000C949F000C949F000C949F00B4
:100050000C949F000C949F000C949F000C949F00A4
:100060000C949F000C949F000C949F000C949F0094
:100070000C949F000C949F000C949F000C949F0084
:100080000C949F000C949F000C949F000C949F0074
:100090000C949F000C949F000C949F000C949F0064
:1000A0000C949F000C949F000C949F000C949F0054
:1000B0000C949F000C949F000C949F000C949F0044
:1000C0000C949F000C949F000C949F000C949F0034
:1000D0000C949F000C949F000C949F000C949F0024
:1000E0000C949F000C949F000C949F000C949F0014
:1000F0000C949F006364696E6F70737578585B0031
:1001000011241FBECFEFCDBFDFE7DEBF10E4A0E0BC
:10011000B0E4ECE0F9E000E00BBF02C007900D9204
:10012000A031B107D9F720E4A0E1B0E401C01D92ED
:10013000A133B207E1F70E94E8000C9484040C9408
:100140000000E0E0F8E01086118680EC868383E012
:100150008783089587E08093810484E08093E60597
:10016000E0E0FAE08FEF90E086A397A383E7818336
:1001700089E08083089590E0E0E0FAE080A791A70D
:1001800070E062A773A750E044A755A70895809137
:1001900004088823E4F78091000808950F931F93C3
:1001A000CF938C01C0E00E94C7008D3011F08A30DF
:1001B00029F4F801EC0FF11D108206C0F801EC0FD4
:1001C000F11D8083CF5FEFCFCF911F910F910895E5
:1001D0000E94A1000E94AA0040E060E08FEF0E9410
:1001E000BB0083E190E40E94CE0080E190E49F9305
:1001F0008F9381E190E49F938F9382E190E49F93AA
:100200008F9380E090E49F938F9383E190E49F939A
:100210008F930E941C012DB73EB7265F3F4F2DBF25
:100220003EBF0397F1F640911040609111408091DC
:1002300012400E94BB00D5CFCF93DF93CDB7DEB77E
:100240002E97CDBFDEBF85E08C838B899C89898307
:100250009A83AE01495E5F4F6D897E89CE0101961A
:100260000E94F1022E96CDBFDEBFDF91CF9108959F
:1002700020FD09C0FC0123FD05C022FF02C07383DD
:10028000628351834083089544FD17C046FD17C023
:10029000AB01BC01DA01FB01AA0FBB1FEE1FFF1F60
:1002A0001094D1F74A0F5B1F6E1F7F1FCB01BA015D
:1002B000660F771F881F991F09C033E001C034E023
:1002C000660F771F881F991F3150D1F7620F711D7C
:1002D000811D911D08950F931F93CF93DF938C0180
:1002E000C8010E942A04EC0197FD08C00E94160470
:1002F000892BB1F7B801CE010E946804CE01DF91CD
:10030000CF911F910F9108958F929F92AF92BF92BC
:10031000EF92FF920F931F93CF93DF938C01D62F11
:100320007A01B22E0E942A049C0133272B32310518
:1003300031F02D32310561F48B2D8068B82ED1500B
:1003400011F480E068C0C8010E942A0497FDF9CF2B
:10035000CB2DCD7F2B2D207309F58033F9F4AA2402
:10036000AA94AD0E09F443C0C8010E942A0497FD67
:100370003EC09C012F7D33272835310549F4C264E6
:10038000D250A9F1C8010E942A0497FF07C02FC0CC
:10039000B6FE02C0C26001C0C261DA2D812C912C70
:1003A000540120ED280F283080F0C4FF04C0B801AC
:1003B0000E94680419C02A3040F0C6FFF8CF2F7D94
:1003C0003FEE320F363098F727504C2FC501B4015D
:1003D0000E9444014B015C01C260D15059F0C80138
:1003E0000E942A0497FFDDCFC1FD04C0AACF812C53
:1003F000912C5401C7FF08C0B094A09490948094AD
:10040000811C911CA11CB11C2C2FB501A401C7019A
:100410000E94380181E0DF91CF911F910F91FF90F1
:10042000EF90BF90AF909F908F9008955F926F92E2
:100430007F928F929F92AF92BF92CF92DF92EF9274
:10044000FF920F931F93CF93DF93CDB7DEB7A097A3
:10045000CDBFDEBF5C01962E7A01F9018E010F5FE0
:100460001F4F680180E2D8011D928A95E9F7D501F6
:1004700013968C9080E090E0612C712C30E061E06C
:1004800070E083FC259183FE21918F01522E211172
:1004900003C080E090E092C02E3511F4009751F136
:1004A000432F50E0481759073CF42D3559F12D32B0
:1004B00019F4772009F103C0772009F46AC0452DAB
:1004C000469546954695D601A40FB11D452D47701A
:1004D0008B0102C0000F111F4A95E2F7A8015C9141
:1004E000452B4C93651459F0561410F45394E7CFF0
:1004F0005A94E5CF31E004C07724739401C0712C85
:100500000196BFCF772019F08E8180628E833111E2
:1005100003C08824839417C0F6019E012F5D3F4FCE
:100520008081809581932E173F07D1F7F2CFE11498
:10053000F10429F0D7018C93F70131967F019A9449
:10054000812C9920F9F0C5010E942A0497FD18C05A
:10055000FC01FF2723E0F595E7952A95E1F7EC0DDF
:10056000FD1D208130E0AC014770552702C0359554
:1005700027954A95E2F720FDDACFB5010E9468047D
:10058000811087CFE114F10411F0D7011C92C8014A
:1005900015C0422F469546954695D601A40FB11D2C
:1005A000422F47708B0102C0000F111F4A95E2F7DE
:1005B000A8015C91452B4C93622EA2CFA096CDBF93
:1005C000DEBFDF91CF911F910F91FF90EF90DF90F1
:1005D000CF90BF90AF909F908F907F906F905F90E3
:1005E00008955F926F927F928F929F92AF92BF9287
:1005F000CF92DF92EF92FF920F931F93CF93DF93EF
:100600006C01EB015A01FC0116821782512CF60194
:10061000E380FE01E3FC8591E3FE8191182FEF0159
:10062000882309F4EEC090E00E941604892B21F083
:10063000C6010E946B01EBCF153241F4FE01E3FCD1
:100640001591E3FE1191EF01153281F4C6010E946C
:100650002A0497FDD4C0412F50E09C013327241772
:100660003507A9F2B6010E946804CBC01A3239F4EA
:10067000E3FC1591E3FE1191EF0101E001C000E000
:10068000F12C20ED210F2A3080F402606F2D70E0F4
:1006900080E090E040E20E944401F62EFE01E3FC7F
:1006A0001591E3FE1191EF01ECCF01FF03C0F110B2
:1006B00003C0A7C0FF24FA94183619F01C3651F075
:1006C00010C0FE01E3FC1591E3FE1191EF01183615
:1006D00041F408600460FE01E3FC1591E3FE119112
:1006E000EF01112309F48DC0612F70E084EF90E0D9
:1006F0000E941F04892B09F484C000FD07C0F50186
:1007000080809180C50102965C0102C0812C912CF1
:100710001E3651F4F6014681578160E070E0202FCB
:10072000C4010E94380173CF1336A9F401FD02C041
:10073000FF24F394C6010E942A0497FD60C081142F
:10074000910429F0F4018083C40101964C01FA94CC
:10075000F110F0CF50C01B3559F49E01A4016F2D4C
:10076000C6010E941602EC01892B09F044C03EC06C
:10077000C6010E946B0197FD42C01F3661F128F44B
:10078000143639F1193651F128C0133771F0153785
:1007900001F123C08114910429F0F4016082C401A5
:1007A00001964C01FA94FF2071F0C6010E942A04C0
:1007B0003C0197FD08C00E941604892B59F3B6012D
:1007C000C3010E94680481149104A9F0F40110820D
:1007D00012C0006203C0006101C00064202FA401A8
:1007E0006F2DC6010E948401811105C0F60183812D
:1007F000807329F406C000FD0ACF539408CF55201A
:1008000019F0852D90E002C08FEF9FEFDF91CF911F
:100810001F910F91FF90EF90DF90CF90BF90AF901E
:100820009F908F907F906F905F90089591110C949E
:100830008104803219F089508550C8F70895FC0171
:100840000590061621F00020D9F7C00108953197D0
:10085000CF010895CF93DF93EC012B8120FF33C0AC
:1008600026FF0AC02F7B2B838E819F8101968E836A
:100870009F838A8190E029C022FF0FC0E881F9811F
:100880008081082E000C990B009719F420622B83AD
:100890001AC03196E883F9830EC0EA85FB85099575
:1008A00097FF09C02B81019611F080E201C080E121
:1008B000822B8B8308C02E813F812F5F3F4F2E8379
:1008C0003F83992702C08FEF9FEFDF91CF9108956B
:1008D000FB01238120FF12C026FD10C08F3F3FEF98
:1008E000930761F082832F7D2064238326813781E3
:1008F0002150310926833783992708958FEF9FEF81
:0C0900000895992788270895F894FFCFE8
:10090C00256868752C256868752C25686875000045
:00000001FF
